{"project/contracts/cartFactory.sol":{"CartFactory":{"abi":[{"inputs":[{"components":[{"internalType":"uint256","name":"id","type":"uint256"},{"internalType":"string","name":"name","type":"string"},{"internalType":"uint256","name":"quantity","type":"uint256"},{"internalType":"uint256","name":"price","type":"uint256"}],"internalType":"struct CartFactory.Item[]","name":"_items","type":"tuple[]"},{"internalType":"uint256","name":"_total","type":"uint256"},{"internalType":"address","name":"_storeWallet","type":"address"}],"name":"addOrder","outputs":[],"stateMutability":"nonpayable","type":"function"},{"inputs":[],"name":"orderCount","outputs":[{"internalType":"uint256","name":"","type":"uint256"}],"stateMutability":"view","type":"function"},{"inputs":[{"internalType":"uint256","name":"","type":"uint256"}],"name":"orders","outputs":[{"internalType":"uint256","name":"total","type":"uint256"},{"internalType":"address","name":"customer","type":"address"},{"internalType":"address","name":"storeWallet","type":"address"}],"stateMutability":"view","type":"function"}],"evm":{"bytecode":{"linkReferences":{},"object":"6080604052348015600e575f5ffd5b5061059b8061001c5f395ff3fe608060405234801561000f575f5ffd5b506004361061003f575f3560e01c80632453ffa814610043578063374fc2631461005f578063a85c38ef14610074575b5f5ffd5b61004c60015481565b6040519081526020015b60405180910390f35b61007261006d366004610243565b6100d6565b005b6100b16100823660046103da565b5f6020819052908152604090206001810154600282015460039092015490916001600160a01b03908116911683565b604080519384526001600160a01b039283166020850152911690820152606001610056565b600180549081905f6100e7836103f1565b90915550505f81815260208190526040812060018101859055600281018054336001600160a01b031991821617909155600390910180549091166001600160a01b0385161790555b84518110156101b3575f828152602081905260409020855186908390811061015957610159610415565b6020908102919091018101518254600181810185555f94855293839020825160049092020190815591810151909282019061019490826104aa565b506040820151600282015560609091015160039091015560010161012f565b5050505050565b634e487b7160e01b5f52604160045260245ffd5b6040516080810167ffffffffffffffff811182821017156101f1576101f16101ba565b60405290565b604051601f8201601f1916810167ffffffffffffffff81118282101715610220576102206101ba565b604052919050565b80356001600160a01b038116811461023e575f5ffd5b919050565b5f5f5f60608486031215610255575f5ffd5b833567ffffffffffffffff81111561026b575f5ffd5b8401601f8101861361027b575f5ffd5b803567ffffffffffffffff811115610295576102956101ba565b8060051b6102a5602082016101f7565b918252602081840181019290810190898411156102c0575f5ffd5b6020850192505b838310156103b757823567ffffffffffffffff8111156102e5575f5ffd5b85016080818c03601f190112156102fa575f5ffd5b6103026101ce565b60208201358152604082013567ffffffffffffffff811115610322575f5ffd5b82016020810190603f018d13610336575f5ffd5b803567ffffffffffffffff811115610350576103506101ba565b610363601f8201601f19166020016101f7565b8181528e6020838501011115610377575f5ffd5b816020840160208301375f6020928201830152838201526060848101356040850152608090940135938301939093525083529283019291909101906102c7565b9650505050602085013592506103d1905060408501610228565b90509250925092565b5f602082840312156103ea575f5ffd5b5035919050565b5f6001820161040e57634e487b7160e01b5f52601160045260245ffd5b5060010190565b634e487b7160e01b5f52603260045260245ffd5b600181811c9082168061043d57607f821691505b60208210810361045b57634e487b7160e01b5f52602260045260245ffd5b50919050565b601f8211156104a557805f5260205f20601f840160051c810160208510156104865750805b601f840160051c820191505b818110156101b3575f8155600101610492565b505050565b815167ffffffffffffffff8111156104c4576104c46101ba565b6104d8816104d28454610429565b84610461565b6020601f82116001811461050a575f83156104f35750848201515b5f19600385901b1c1916600184901b1784556101b3565b5f84815260208120601f198516915b828110156105395787850151825560209485019460019092019101610519565b508482101561055657868401515f19600387901b60f8161c191681555b50505050600190811b0190555056fea2646970667358221220c754aeb1818dceb5b599014a41f138500371a1f0f1966b5b5f9648923b9bafe564736f6c634300081c0033","opcodes":"PUSH1 0x80 PUSH1 0x40 MSTORE CALLVALUE DUP1 ISZERO PUSH1 0xE JUMPI PUSH0 PUSH0 REVERT JUMPDEST POP PUSH2 0x59B DUP1 PUSH2 0x1C PUSH0 CODECOPY PUSH0 RETURN INVALID PUSH1 0x80 PUSH1 0x40 MSTORE CALLVALUE DUP1 ISZERO PUSH2 0xF JUMPI PUSH0 PUSH0 REVERT JUMPDEST POP PUSH1 0x4 CALLDATASIZE LT PUSH2 0x3F JUMPI PUSH0 CALLDATALOAD PUSH1 0xE0 SHR DUP1 PUSH4 0x2453FFA8 EQ PUSH2 0x43 JUMPI DUP1 PUSH4 0x374FC263 EQ PUSH2 0x5F JUMPI DUP1 PUSH4 0xA85C38EF EQ PUSH2 0x74 JUMPI JUMPDEST PUSH0 PUSH0 REVERT JUMPDEST PUSH2 0x4C PUSH1 0x1 SLOAD DUP2 JUMP JUMPDEST PUSH1 0x40 MLOAD SWAP1 DUP2 MSTORE PUSH1 0x20 ADD JUMPDEST PUSH1 0x40 MLOAD DUP1 SWAP2 SUB SWAP1 RETURN JUMPDEST PUSH2 0x72 PUSH2 0x6D CALLDATASIZE PUSH1 0x4 PUSH2 0x243 JUMP JUMPDEST PUSH2 0xD6 JUMP JUMPDEST STOP JUMPDEST PUSH2 0xB1 PUSH2 0x82 CALLDATASIZE PUSH1 0x4 PUSH2 0x3DA JUMP JUMPDEST PUSH0 PUSH1 0x20 DUP2 SWAP1 MSTORE SWAP1 DUP2 MSTORE PUSH1 0x40 SWAP1 KECCAK256 PUSH1 0x1 DUP2 ADD SLOAD PUSH1 0x2 DUP3 ADD SLOAD PUSH1 0x3 SWAP1 SWAP3 ADD SLOAD SWAP1 SWAP2 PUSH1 0x1 PUSH1 0x1 PUSH1 0xA0 SHL SUB SWAP1 DUP2 AND SWAP2 AND DUP4 JUMP JUMPDEST PUSH1 0x40 DUP1 MLOAD SWAP4 DUP5 MSTORE PUSH1 0x1 PUSH1 0x1 PUSH1 0xA0 SHL SUB SWAP3 DUP4 AND PUSH1 0x20 DUP6 ADD MSTORE SWAP2 AND SWAP1 DUP3 ADD MSTORE PUSH1 0x60 ADD PUSH2 0x56 JUMP JUMPDEST PUSH1 0x1 DUP1 SLOAD SWAP1 DUP2 SWAP1 PUSH0 PUSH2 0xE7 DUP4 PUSH2 0x3F1 JUMP JUMPDEST SWAP1 SWAP2 SSTORE POP POP PUSH0 DUP2 DUP2 MSTORE PUSH1 0x20 DUP2 SWAP1 MSTORE PUSH1 0x40 DUP2 KECCAK256 PUSH1 0x1 DUP2 ADD DUP6 SWAP1 SSTORE PUSH1 0x2 DUP2 ADD DUP1 SLOAD CALLER PUSH1 0x1 PUSH1 0x1 PUSH1 0xA0 SHL SUB NOT SWAP2 DUP3 AND OR SWAP1 SWAP2 SSTORE PUSH1 0x3 SWAP1 SWAP2 ADD DUP1 SLOAD SWAP1 SWAP2 AND PUSH1 0x1 PUSH1 0x1 PUSH1 0xA0 SHL SUB DUP6 AND OR SWAP1 SSTORE JUMPDEST DUP5 MLOAD DUP2 LT ISZERO PUSH2 0x1B3 JUMPI PUSH0 DUP3 DUP2 MSTORE PUSH1 0x20 DUP2 SWAP1 MSTORE PUSH1 0x40 SWAP1 KECCAK256 DUP6 MLOAD DUP7 SWAP1 DUP4 SWAP1 DUP2 LT PUSH2 0x159 JUMPI PUSH2 0x159 PUSH2 0x415 JUMP JUMPDEST PUSH1 0x20 SWAP1 DUP2 MUL SWAP2 SWAP1 SWAP2 ADD DUP2 ADD MLOAD DUP3 SLOAD PUSH1 0x1 DUP2 DUP2 ADD DUP6 SSTORE PUSH0 SWAP5 DUP6 MSTORE SWAP4 DUP4 SWAP1 KECCAK256 DUP3 MLOAD PUSH1 0x4 SWAP1 SWAP3 MUL ADD SWAP1 DUP2 SSTORE SWAP2 DUP2 ADD MLOAD SWAP1 SWAP3 DUP3 ADD SWAP1 PUSH2 0x194 SWAP1 DUP3 PUSH2 0x4AA JUMP JUMPDEST POP PUSH1 0x40 DUP3 ADD MLOAD PUSH1 0x2 DUP3 ADD SSTORE PUSH1 0x60 SWAP1 SWAP2 ADD MLOAD PUSH1 0x3 SWAP1 SWAP2 ADD SSTORE PUSH1 0x1 ADD PUSH2 0x12F JUMP JUMPDEST POP POP POP POP POP JUMP JUMPDEST PUSH4 0x4E487B71 PUSH1 0xE0 SHL PUSH0 MSTORE PUSH1 0x41 PUSH1 0x4 MSTORE PUSH1 0x24 PUSH0 REVERT JUMPDEST PUSH1 0x40 MLOAD PUSH1 0x80 DUP2 ADD PUSH8 0xFFFFFFFFFFFFFFFF DUP2 GT DUP3 DUP3 LT OR ISZERO PUSH2 0x1F1 JUMPI PUSH2 0x1F1 PUSH2 0x1BA JUMP JUMPDEST PUSH1 0x40 MSTORE SWAP1 JUMP JUMPDEST PUSH1 0x40 MLOAD PUSH1 0x1F DUP3 ADD PUSH1 0x1F NOT AND DUP2 ADD PUSH8 0xFFFFFFFFFFFFFFFF DUP2 GT DUP3 DUP3 LT OR ISZERO PUSH2 0x220 JUMPI PUSH2 0x220 PUSH2 0x1BA JUMP JUMPDEST PUSH1 0x40 MSTORE SWAP2 SWAP1 POP JUMP JUMPDEST DUP1 CALLDATALOAD PUSH1 0x1 PUSH1 0x1 PUSH1 0xA0 SHL SUB DUP2 AND DUP2 EQ PUSH2 0x23E JUMPI PUSH0 PUSH0 REVERT JUMPDEST SWAP2 SWAP1 POP JUMP JUMPDEST PUSH0 PUSH0 PUSH0 PUSH1 0x60 DUP5 DUP7 SUB SLT ISZERO PUSH2 0x255 JUMPI PUSH0 PUSH0 REVERT JUMPDEST DUP4 CALLDATALOAD PUSH8 0xFFFFFFFFFFFFFFFF DUP2 GT ISZERO PUSH2 0x26B JUMPI PUSH0 PUSH0 REVERT JUMPDEST DUP5 ADD PUSH1 0x1F DUP2 ADD DUP7 SGT PUSH2 0x27B JUMPI PUSH0 PUSH0 REVERT JUMPDEST DUP1 CALLDATALOAD PUSH8 0xFFFFFFFFFFFFFFFF DUP2 GT ISZERO PUSH2 0x295 JUMPI PUSH2 0x295 PUSH2 0x1BA JUMP JUMPDEST DUP1 PUSH1 0x5 SHL PUSH2 0x2A5 PUSH1 0x20 DUP3 ADD PUSH2 0x1F7 JUMP JUMPDEST SWAP2 DUP3 MSTORE PUSH1 0x20 DUP2 DUP5 ADD DUP2 ADD SWAP3 SWAP1 DUP2 ADD SWAP1 DUP10 DUP5 GT ISZERO PUSH2 0x2C0 JUMPI PUSH0 PUSH0 REVERT JUMPDEST PUSH1 0x20 DUP6 ADD SWAP3 POP JUMPDEST DUP4 DUP4 LT ISZERO PUSH2 0x3B7 JUMPI DUP3 CALLDATALOAD PUSH8 0xFFFFFFFFFFFFFFFF DUP2 GT ISZERO PUSH2 0x2E5 JUMPI PUSH0 PUSH0 REVERT JUMPDEST DUP6 ADD PUSH1 0x80 DUP2 DUP13 SUB PUSH1 0x1F NOT ADD SLT ISZERO PUSH2 0x2FA JUMPI PUSH0 PUSH0 REVERT JUMPDEST PUSH2 0x302 PUSH2 0x1CE JUMP JUMPDEST PUSH1 0x20 DUP3 ADD CALLDATALOAD DUP2 MSTORE PUSH1 0x40 DUP3 ADD CALLDATALOAD PUSH8 0xFFFFFFFFFFFFFFFF DUP2 GT ISZERO PUSH2 0x322 JUMPI PUSH0 PUSH0 REVERT JUMPDEST DUP3 ADD PUSH1 0x20 DUP2 ADD SWAP1 PUSH1 0x3F ADD DUP14 SGT PUSH2 0x336 JUMPI PUSH0 PUSH0 REVERT JUMPDEST DUP1 CALLDATALOAD PUSH8 0xFFFFFFFFFFFFFFFF DUP2 GT ISZERO PUSH2 0x350 JUMPI PUSH2 0x350 PUSH2 0x1BA JUMP JUMPDEST PUSH2 0x363 PUSH1 0x1F DUP3 ADD PUSH1 0x1F NOT AND PUSH1 0x20 ADD PUSH2 0x1F7 JUMP JUMPDEST DUP2 DUP2 MSTORE DUP15 PUSH1 0x20 DUP4 DUP6 ADD ADD GT ISZERO PUSH2 0x377 JUMPI PUSH0 PUSH0 REVERT JUMPDEST DUP2 PUSH1 0x20 DUP5 ADD PUSH1 0x20 DUP4 ADD CALLDATACOPY PUSH0 PUSH1 0x20 SWAP3 DUP3 ADD DUP4 ADD MSTORE DUP4 DUP3 ADD MSTORE PUSH1 0x60 DUP5 DUP2 ADD CALLDATALOAD PUSH1 0x40 DUP6 ADD MSTORE PUSH1 0x80 SWAP1 SWAP5 ADD CALLDATALOAD SWAP4 DUP4 ADD SWAP4 SWAP1 SWAP4 MSTORE POP DUP4 MSTORE SWAP3 DUP4 ADD SWAP3 SWAP2 SWAP1 SWAP2 ADD SWAP1 PUSH2 0x2C7 JUMP JUMPDEST SWAP7 POP POP POP POP PUSH1 0x20 DUP6 ADD CALLDATALOAD SWAP3 POP PUSH2 0x3D1 SWAP1 POP PUSH1 0x40 DUP6 ADD PUSH2 0x228 JUMP JUMPDEST SWAP1 POP SWAP3 POP SWAP3 POP SWAP3 JUMP JUMPDEST PUSH0 PUSH1 0x20 DUP3 DUP5 SUB SLT ISZERO PUSH2 0x3EA JUMPI PUSH0 PUSH0 REVERT JUMPDEST POP CALLDATALOAD SWAP2 SWAP1 POP JUMP JUMPDEST PUSH0 PUSH1 0x1 DUP3 ADD PUSH2 0x40E JUMPI PUSH4 0x4E487B71 PUSH1 0xE0 SHL PUSH0 MSTORE PUSH1 0x11 PUSH1 0x4 MSTORE PUSH1 0x24 PUSH0 REVERT JUMPDEST POP PUSH1 0x1 ADD SWAP1 JUMP JUMPDEST PUSH4 0x4E487B71 PUSH1 0xE0 SHL PUSH0 MSTORE PUSH1 0x32 PUSH1 0x4 MSTORE PUSH1 0x24 PUSH0 REVERT JUMPDEST PUSH1 0x1 DUP2 DUP2 SHR SWAP1 DUP3 AND DUP1 PUSH2 0x43D JUMPI PUSH1 0x7F DUP3 AND SWAP2 POP JUMPDEST PUSH1 0x20 DUP3 LT DUP2 SUB PUSH2 0x45B JUMPI PUSH4 0x4E487B71 PUSH1 0xE0 SHL PUSH0 MSTORE PUSH1 0x22 PUSH1 0x4 MSTORE PUSH1 0x24 PUSH0 REVERT JUMPDEST POP SWAP2 SWAP1 POP JUMP JUMPDEST PUSH1 0x1F DUP3 GT ISZERO PUSH2 0x4A5 JUMPI DUP1 PUSH0 MSTORE PUSH1 0x20 PUSH0 KECCAK256 PUSH1 0x1F DUP5 ADD PUSH1 0x5 SHR DUP2 ADD PUSH1 0x20 DUP6 LT ISZERO PUSH2 0x486 JUMPI POP DUP1 JUMPDEST PUSH1 0x1F DUP5 ADD PUSH1 0x5 SHR DUP3 ADD SWAP2 POP JUMPDEST DUP2 DUP2 LT ISZERO PUSH2 0x1B3 JUMPI PUSH0 DUP2 SSTORE PUSH1 0x1 ADD PUSH2 0x492 JUMP JUMPDEST POP POP POP JUMP JUMPDEST DUP2 MLOAD PUSH8 0xFFFFFFFFFFFFFFFF DUP2 GT ISZERO PUSH2 0x4C4 JUMPI PUSH2 0x4C4 PUSH2 0x1BA JUMP JUMPDEST PUSH2 0x4D8 DUP2 PUSH2 0x4D2 DUP5 SLOAD PUSH2 0x429 JUMP JUMPDEST DUP5 PUSH2 0x461 JUMP JUMPDEST PUSH1 0x20 PUSH1 0x1F DUP3 GT PUSH1 0x1 DUP2 EQ PUSH2 0x50A JUMPI PUSH0 DUP4 ISZERO PUSH2 0x4F3 JUMPI POP DUP5 DUP3 ADD MLOAD JUMPDEST PUSH0 NOT PUSH1 0x3 DUP6 SWAP1 SHL SHR NOT AND PUSH1 0x1 DUP5 SWAP1 SHL OR DUP5 SSTORE PUSH2 0x1B3 JUMP JUMPDEST PUSH0 DUP5 DUP2 MSTORE PUSH1 0x20 DUP2 KECCAK256 PUSH1 0x1F NOT DUP6 AND SWAP2 JUMPDEST DUP3 DUP2 LT ISZERO PUSH2 0x539 JUMPI DUP8 DUP6 ADD MLOAD DUP3 SSTORE PUSH1 0x20 SWAP5 DUP6 ADD SWAP5 PUSH1 0x1 SWAP1 SWAP3 ADD SWAP2 ADD PUSH2 0x519 JUMP JUMPDEST POP DUP5 DUP3 LT ISZERO PUSH2 0x556 JUMPI DUP7 DUP5 ADD MLOAD PUSH0 NOT PUSH1 0x3 DUP8 SWAP1 SHL PUSH1 0xF8 AND SHR NOT AND DUP2 SSTORE JUMPDEST POP POP POP POP PUSH1 0x1 SWAP1 DUP2 SHL ADD SWAP1 SSTORE POP JUMP INVALID LOG2 PUSH5 0x6970667358 0x22 SLT KECCAK256 0xC7 SLOAD 0xAE 0xB1 DUP2 DUP14 0xCE 0xB5 0xB5 SWAP10 ADD BLOBBASEFEE COINBASE CALL CODESIZE POP SUB PUSH18 0xA1F0F1966B5B5F9648923B9BAFE564736F6C PUSH4 0x4300081C STOP CALLER "},"methodIdentifiers":{"addOrder((uint256,string,uint256,uint256)[],uint256,address)":"374fc263","orderCount()":"2453ffa8","orders(uint256)":"a85c38ef"}}}}}